{
  "transactions": [
    {
      "hash": "0xf1c41f569aa1689063b7a8365efc1b61f4e1f07f48de11b655db27e056ad07bd",
      "transactionType": "CALL",
      "contractName": "EntryPoint",
      "contractAddress": "0x0000000071727de22e5e9d8baf0edac6f37da032",
      "function": "handleOps((address,uint256,bytes,bytes,bytes32,uint256,bytes32,bytes,bytes)[],address)",
      "arguments": [
        "[(0x1DA62d49D8bbd8Fbe879dD7aACa7153914c47363, 0, 0x, 0xb61d27f6000000000000000000000000c486c0f165e0f28470a1d9a121bbb95a7dbff92c00000000000000000000000000000000000000000000000000038d7ea4c6800000000000000000000000000000000000000000000000000000000000000000600000000000000000000000000000000000000000000000000000000000000000, 0x0000000000000000000000000007a1200000000000000000000000000007a120, 100000, 0x000000000000000000000000000186a0000000000000000000000000000f4240, 0x, 0xa26867aa90640e98be7f7e37a5784bf9b41cc5f3fbca18f0e61e3fa0e60ed9f847f43d75bc4ea96e03fed5975d269680ca117de226ef8ea7b73d7fbaa3a224121c)]",
        "0xc486C0f165e0f28470a1d9a121bbB95A7DbFF92c"
      ],
      "transaction": {
        "from": "0xc486c0f165e0f28470a1d9a121bbb95a7dbff92c",
        "to": "0x0000000071727de22e5e9d8baf0edac6f37da032",
        "gas": "0xa6095",
        "value": "0x0",
        "input": "0x765e827f0000000000000000000000000000000000000000000000000000000000000040000000000000000000000000c486c0f165e0f28470a1d9a121bbb95a7dbff92c000000000000000000000000000000000000000000000000000000000000000100000000000000000000000000000000000000000000000000000000000000200000000000000000000000001da62d49d8bbd8fbe879dd7aaca7153914c473630000000000000000000000000000000000000000000000000000000000000000000000000000000000000000000000000000000000000000000000000000012000000000000000000000000000000000000000000000000000000000000001400000000000000000000000000007a1200000000000000000000000000007a12000000000000000000000000000000000000000000000000000000000000186a0000000000000000000000000000186a0000000000000000000000000000f42400000000000000000000000000000000000000000000000000000000000000200000000000000000000000000000000000000000000000000000000000000022000000000000000000000000000000000000000000000000000000000000000000000000000000000000000000000000000000000000000000000000000000084b61d27f6000000000000000000000000c486c0f165e0f28470a1d9a121bbb95a7dbff92c00000000000000000000000000000000000000000000000000038d7ea4c68000000000000000000000000000000000000000000000000000000000000000006000000000000000000000000000000000000000000000000000000000000000000000000000000000000000000000000000000000000000000000000000000000000000000000000000000000000000000000000000000000000000000000000000000000000000000000000000000000000000000000000000000041a26867aa90640e98be7f7e37a5784bf9b41cc5f3fbca18f0e61e3fa0e60ed9f847f43d75bc4ea96e03fed5975d269680ca117de226ef8ea7b73d7fbaa3a224121c00000000000000000000000000000000000000000000000000000000000000",
        "nonce": "0xf",
        "chainId": "0xaa36a7"
      },
      "additionalContracts": [],
      "isFixedGasLimit": false
    }
  ],
  "receipts": [
    {
      "status": "0x1",
      "cumulativeGasUsed": "0x11e4ff3",
      "logs": [
        {
          "address": "0x0000000071727de22e5e9d8baf0edac6f37da032",
          "topics": [
            "0x2da466a7b24304f47e87fa2e1e5a81b9831ce54fec19055ce277ca2f39ba42c4",
            "0x0000000000000000000000001da62d49d8bbd8fbe879dd7aaca7153914c47363"
          ],
          "data": "0x000000000000000000000000000000000000000000000000000001001d1bf800",
          "blockHash": "0xeed869cd81838922d947e7b11a8270f16730907e6abdba68064ab41d6ac2d47e",
          "blockNumber": "0x9e0406",
          "blockTimestamp": "0x69a3179c",
          "transactionHash": "0xf1c41f569aa1689063b7a8365efc1b61f4e1f07f48de11b655db27e056ad07bd",
          "transactionIndex": "0x76",
          "logIndex": "0x18d",
          "removed": false
        },
        {
          "address": "0x0000000071727de22e5e9d8baf0edac6f37da032",
          "topics": [
            "0xbb47ee3e183a558b1a2ff0874b079f3fc5478b7454eacf2bfc5af2ff5878f972"
          ],
          "data": "0x",
          "blockHash": "0xeed869cd81838922d947e7b11a8270f16730907e6abdba68064ab41d6ac2d47e",
          "blockNumber": "0x9e0406",
          "blockTimestamp": "0x69a3179c",
          "transactionHash": "0xf1c41f569aa1689063b7a8365efc1b61f4e1f07f48de11b655db27e056ad07bd",
          "transactionIndex": "0x76",
          "logIndex": "0x18e",
          "removed": false
        },
        {
          "address": "0x0000000071727de22e5e9d8baf0edac6f37da032",
          "topics": [
            "0x49628fd1471006c1482da88028e9ce4dbb080b815c9b0344d39e5a8e6ec1419f",
            "0xff9479a9fa57e4a03f4536d2568b29c87de0c0c47466014e7bf49c66a50b6608",
            "0x0000000000000000000000001da62d49d8bbd8fbe879dd7aaca7153914c47363",
            "0x0000000000000000000000000000000000000000000000000000000000000000"
          ],
          "data": "0x000000000000000000000000000000000000000000000000000000000000000000000000000000000000000000000000000000000000000000000000000000010000000000000000000000000000000000000000000000000000000567941cb00000000000000000000000000000000000000000000000000000000000038a10",
          "blockHash": "0xeed869cd81838922d947e7b11a8270f16730907e6abdba68064ab41d6ac2d47e",
          "blockNumber": "0x9e0406",
          "blockTimestamp": "0x69a3179c",
          "transactionHash": "0xf1c41f569aa1689063b7a8365efc1b61f4e1f07f48de11b655db27e056ad07bd",
          "transactionIndex": "0x76",
          "logIndex": "0x18f",
          "removed": false
        }
      ],
      "logsBloom": "0x00000000000000000000000000000000000010000000000000000000000000000008000000000000000000010000000000000000000000000000020000000000000000000000000000000000000000000040000000000000000000000100200000000000020800000000000000000800000000000004000000000000000200000000000000000000000000000000000000000000000000008000000000000000000000000080000000400000000002000000000000000000000002000000000000000000000000400001000000000000000000000000000000000000000020000040000000000000000000000000000000000000000000000000000000000000",
      "type": "0x2",
      "transactionHash": "0xf1c41f569aa1689063b7a8365efc1b61f4e1f07f48de11b655db27e056ad07bd",
      "transactionIndex": "0x76",
      "blockHash": "0xeed869cd81838922d947e7b11a8270f16730907e6abdba68064ab41d6ac2d47e",
      "blockNumber": "0x9e0406",
      "gasUsed": "0x1f410",
      "effectiveGasPrice": "0xf46f3",
      "from": "0xc486c0f165e0f28470a1d9a121bbb95a7dbff92c",
      "to": "0x0000000071727de22e5e9d8baf0edac6f37da032",
      "contractAddress": null
    }
  ],
  "libraries": [],
  "pending": [],
  "returns": {},
  "timestamp": 1772296091227,
  "chain": 11155111,
  "commit": "e88d725"
}