{
  "transactions": [
    {
      "hash": "0x23be651df9ee3feaf4484dff061fda59389a32a6ce9fe39a05f8a575d8b5797b",
      "transactionType": "CALL",
      "contractName": "EntryPoint",
      "contractAddress": "0x0000000071727de22e5e9d8baf0edac6f37da032",
      "function": "handleOps((address,uint256,bytes,bytes,bytes32,uint256,bytes32,bytes,bytes)[],address)",
      "arguments": [
        "[(0xf6f9dF6cff68AE4820c27a29873E6E587A4a457C, 0, 0x, 0xb61d27f6000000000000000000000000c486c0f165e0f28470a1d9a121bbb95a7dbff92c00000000000000000000000000000000000000000000000000038d7ea4c6800000000000000000000000000000000000000000000000000000000000000000600000000000000000000000000000000000000000000000000000000000000000, 0x0000000000000000000000000007a1200000000000000000000000000007a120, 100000, 0x000000000000000000000000000186a0000000000000000000000000000f4240, 0x, 0x9c6b5ea5c94b133de004b0f467f63b509082a89abda23895224b7bc63639280a497f87050f5e8b88d354e9758310ca7a220744b4ba8c38b263af077836bdc6b11b)]",
        "0xc486C0f165e0f28470a1d9a121bbB95A7DbFF92c"
      ],
      "transaction": {
        "from": "0xc486c0f165e0f28470a1d9a121bbb95a7dbff92c",
        "to": "0x0000000071727de22e5e9d8baf0edac6f37da032",
        "gas": "0x9e8f9",
        "value": "0x0",
        "input": "0x765e827f0000000000000000000000000000000000000000000000000000000000000040000000000000000000000000c486c0f165e0f28470a1d9a121bbb95a7dbff92c00000000000000000000000000000000000000000000000000000000000000010000000000000000000000000000000000000000000000000000000000000020000000000000000000000000f6f9df6cff68ae4820c27a29873e6e587a4a457c0000000000000000000000000000000000000000000000000000000000000000000000000000000000000000000000000000000000000000000000000000012000000000000000000000000000000000000000000000000000000000000001400000000000000000000000000007a1200000000000000000000000000007a12000000000000000000000000000000000000000000000000000000000000186a0000000000000000000000000000186a0000000000000000000000000000f42400000000000000000000000000000000000000000000000000000000000000200000000000000000000000000000000000000000000000000000000000000022000000000000000000000000000000000000000000000000000000000000000000000000000000000000000000000000000000000000000000000000000000084b61d27f6000000000000000000000000c486c0f165e0f28470a1d9a121bbb95a7dbff92c00000000000000000000000000000000000000000000000000038d7ea4c680000000000000000000000000000000000000000000000000000000000000000060000000000000000000000000000000000000000000000000000000000000000000000000000000000000000000000000000000000000000000000000000000000000000000000000000000000000000000000000000000000000000000000000000000000000000000000000000000000000000000000000000000419c6b5ea5c94b133de004b0f467f63b509082a89abda23895224b7bc63639280a497f87050f5e8b88d354e9758310ca7a220744b4ba8c38b263af077836bdc6b11b00000000000000000000000000000000000000000000000000000000000000",
        "nonce": "0xb",
        "chainId": "0xaa36a7"
      },
      "additionalContracts": [],
      "isFixedGasLimit": false
    }
  ],
  "receipts": [
    {
      "status": "0x1",
      "cumulativeGasUsed": "0xd89f28",
      "logs": [
        {
          "address": "0x0000000071727de22e5e9d8baf0edac6f37da032",
          "topics": [
            "0x2da466a7b24304f47e87fa2e1e5a81b9831ce54fec19055ce277ca2f39ba42c4",
            "0x000000000000000000000000f6f9df6cff68ae4820c27a29873e6e587a4a457c"
          ],
          "data": "0x000000000000000000000000000000000000000000000000000001001d1bf800",
          "blockHash": "0x49d88fa1bb2bf458e06e8055e3c1b02cb9ae039c4339734d63fa945f802d2bd3",
          "blockNumber": "0x9d5fe3",
          "blockTimestamp": "0x699b0664",
          "transactionHash": "0x23be651df9ee3feaf4484dff061fda59389a32a6ce9fe39a05f8a575d8b5797b",
          "transactionIndex": "0x55",
          "logIndex": "0xdc",
          "removed": false
        },
        {
          "address": "0x0000000071727de22e5e9d8baf0edac6f37da032",
          "topics": [
            "0xbb47ee3e183a558b1a2ff0874b079f3fc5478b7454eacf2bfc5af2ff5878f972"
          ],
          "data": "0x",
          "blockHash": "0x49d88fa1bb2bf458e06e8055e3c1b02cb9ae039c4339734d63fa945f802d2bd3",
          "blockNumber": "0x9d5fe3",
          "blockTimestamp": "0x699b0664",
          "transactionHash": "0x23be651df9ee3feaf4484dff061fda59389a32a6ce9fe39a05f8a575d8b5797b",
          "transactionIndex": "0x55",
          "logIndex": "0xdd",
          "removed": false
        },
        {
          "address": "0x0000000071727de22e5e9d8baf0edac6f37da032",
          "topics": [
            "0x49628fd1471006c1482da88028e9ce4dbb080b815c9b0344d39e5a8e6ec1419f",
            "0x8a3a2d4bc9dbe9298a76283cb3e8acc0066ba305bb8a04c4519d7bd3427752bd",
            "0x000000000000000000000000f6f9df6cff68ae4820c27a29873e6e587a4a457c",
            "0x0000000000000000000000000000000000000000000000000000000000000000"
          ],
          "data": "0x000000000000000000000000000000000000000000000000000000000000000000000000000000000000000000000000000000000000000000000000000000010000000000000000000000000000000000000000000000000000000544ab525800000000000000000000000000000000000000000000000000000000000373c2",
          "blockHash": "0x49d88fa1bb2bf458e06e8055e3c1b02cb9ae039c4339734d63fa945f802d2bd3",
          "blockNumber": "0x9d5fe3",
          "blockTimestamp": "0x699b0664",
          "transactionHash": "0x23be651df9ee3feaf4484dff061fda59389a32a6ce9fe39a05f8a575d8b5797b",
          "transactionIndex": "0x55",
          "logIndex": "0xde",
          "removed": false
        }
      ],
      "logsBloom": "0x00000000000000000000000000000000000000000000000000000000000000000008000000000000000000010000000000000000000400000000020000000000000000000000000000000000000000000040000000000000200000000000200000000000020800000000000000000800000000000000000000000000100200000000000000000000000040000000000000000000000000000000000000000000000000000000000000400000000000000000000000000000000402000000000000000000000000400001000000000000000000000000000000000000000020000040004000000000000000000000000000000000000000000000000000000000",
      "type": "0x2",
      "transactionHash": "0x23be651df9ee3feaf4484dff061fda59389a32a6ce9fe39a05f8a575d8b5797b",
      "transactionIndex": "0x55",
      "blockHash": "0x49d88fa1bb2bf458e06e8055e3c1b02cb9ae039c4339734d63fa945f802d2bd3",
      "blockNumber": "0x9d5fe3",
      "gasUsed": "0x1dd8d",
      "effectiveGasPrice": "0x1b774c",
      "from": "0xc486c0f165e0f28470a1d9a121bbb95a7dbff92c",
      "to": "0x0000000071727de22e5e9d8baf0edac6f37da032",
      "contractAddress": null
    }
  ],
  "libraries": [],
  "pending": [],
  "returns": {},
  "timestamp": 1771767396627,
  "chain": 11155111,
  "commit": "a45cbed"
}