{
  "transactions": [
    {
      "hash": "0x0550b85ead95e2f87f753b80e2a53efca236baf37f6fe081c6e2d454af84701f",
      "transactionType": "CALL",
      "contractName": "EntryPoint",
      "contractAddress": "0x0000000071727de22e5e9d8baf0edac6f37da032",
      "function": "handleOps((address,uint256,bytes,bytes,bytes32,uint256,bytes32,bytes,bytes)[],address)",
      "arguments": [
        "[(0xf6f9dF6cff68AE4820c27a29873E6E587A4a457C, 0, 0x, 0xb61d27f6000000000000000000000000c486c0f165e0f28470a1d9a121bbb95a7dbff92c00000000000000000000000000000000000000000000000000038d7ea4c6800000000000000000000000000000000000000000000000000000000000000000600000000000000000000000000000000000000000000000000000000000000000, 0x0000000000000000000000000007a1200000000000000000000000000007a120, 100000, 0x000000000000000000000000000186a0000000000000000000000000000f4240, 0x, 0x9c6b5ea5c94b133de004b0f467f63b509082a89abda23895224b7bc63639280a497f87050f5e8b88d354e9758310ca7a220744b4ba8c38b263af077836bdc6b11b)]",
        "0xc486C0f165e0f28470a1d9a121bbB95A7DbFF92c"
      ],
      "transaction": {
        "from": "0xc486c0f165e0f28470a1d9a121bbb95a7dbff92c",
        "to": "0x0000000071727de22e5e9d8baf0edac6f37da032",
        "gas": "0x2939c",
        "value": "0x0",
        "input": "0x765e827f0000000000000000000000000000000000000000000000000000000000000040000000000000000000000000c486c0f165e0f28470a1d9a121bbb95a7dbff92c00000000000000000000000000000000000000000000000000000000000000010000000000000000000000000000000000000000000000000000000000000020000000000000000000000000f6f9df6cff68ae4820c27a29873e6e587a4a457c0000000000000000000000000000000000000000000000000000000000000000000000000000000000000000000000000000000000000000000000000000012000000000000000000000000000000000000000000000000000000000000001400000000000000000000000000007a1200000000000000000000000000007a12000000000000000000000000000000000000000000000000000000000000186a0000000000000000000000000000186a0000000000000000000000000000f42400000000000000000000000000000000000000000000000000000000000000200000000000000000000000000000000000000000000000000000000000000022000000000000000000000000000000000000000000000000000000000000000000000000000000000000000000000000000000000000000000000000000000084b61d27f6000000000000000000000000c486c0f165e0f28470a1d9a121bbb95a7dbff92c00000000000000000000000000000000000000000000000000038d7ea4c680000000000000000000000000000000000000000000000000000000000000000060000000000000000000000000000000000000000000000000000000000000000000000000000000000000000000000000000000000000000000000000000000000000000000000000000000000000000000000000000000000000000000000000000000000000000000000000000000000000000000000000000000419c6b5ea5c94b133de004b0f467f63b509082a89abda23895224b7bc63639280a497f87050f5e8b88d354e9758310ca7a220744b4ba8c38b263af077836bdc6b11b00000000000000000000000000000000000000000000000000000000000000",
        "nonce": "0xa",
        "chainId": "0xaa36a7"
      },
      "additionalContracts": [],
      "isFixedGasLimit": false
    }
  ],
  "receipts": [],
  "libraries": [],
  "pending": [],
  "returns": {},
  "timestamp": 1771734996896,
  "chain": 11155111,
  "commit": "a45cbed"
}