{
  "transactions": [
    {
      "hash": "0x4b3862cdaf30b95ca1be87922814970b52a7bcccbd403f93585d3778a720eaae",
      "transactionType": "CALL",
      "contractName": "EntryPoint",
      "contractAddress": "0x0000000071727de22e5e9d8baf0edac6f37da032",
      "function": "handleOps((address,uint256,bytes,bytes,bytes32,uint256,bytes32,bytes,bytes)[],address)",
      "arguments": [
        "[(0xf6f9dF6cff68AE4820c27a29873E6E587A4a457C, 0, 0x, 0xb61d27f6000000000000000000000000c486c0f165e0f28470a1d9a121bbb95a7dbff92c00000000000000000000000000000000000000000000000000038d7ea4c6800000000000000000000000000000000000000000000000000000000000000000600000000000000000000000000000000000000000000000000000000000000000, 0x0000000000000000000000000007a1200000000000000000000000000007a120, 100000, 0x000000000000000000000000000f4240000000000000000000000000001e8480, 0x, 0x626616b202c6d1bcb20d72d756c43958cd4195ca56c1bfbae94d15ac34b82a144f96c0f016b7ec8daa3bad24b08de85246b8da5767a8c4d4114bb2c26d931a431c)]",
        "0xc486C0f165e0f28470a1d9a121bbB95A7DbFF92c"
      ],
      "transaction": {
        "from": "0xc486c0f165e0f28470a1d9a121bbb95a7dbff92c",
        "to": "0x0000000071727de22e5e9d8baf0edac6f37da032",
        "gas": "0x2939c",
        "value": "0x0",
        "input": "0x765e827f0000000000000000000000000000000000000000000000000000000000000040000000000000000000000000c486c0f165e0f28470a1d9a121bbb95a7dbff92c00000000000000000000000000000000000000000000000000000000000000010000000000000000000000000000000000000000000000000000000000000020000000000000000000000000f6f9df6cff68ae4820c27a29873e6e587a4a457c0000000000000000000000000000000000000000000000000000000000000000000000000000000000000000000000000000000000000000000000000000012000000000000000000000000000000000000000000000000000000000000001400000000000000000000000000007a1200000000000000000000000000007a12000000000000000000000000000000000000000000000000000000000000186a0000000000000000000000000000f4240000000000000000000000000001e84800000000000000000000000000000000000000000000000000000000000000200000000000000000000000000000000000000000000000000000000000000022000000000000000000000000000000000000000000000000000000000000000000000000000000000000000000000000000000000000000000000000000000084b61d27f6000000000000000000000000c486c0f165e0f28470a1d9a121bbb95a7dbff92c00000000000000000000000000000000000000000000000000038d7ea4c68000000000000000000000000000000000000000000000000000000000000000006000000000000000000000000000000000000000000000000000000000000000000000000000000000000000000000000000000000000000000000000000000000000000000000000000000000000000000000000000000000000000000000000000000000000000000000000000000000000000000000000000000041626616b202c6d1bcb20d72d756c43958cd4195ca56c1bfbae94d15ac34b82a144f96c0f016b7ec8daa3bad24b08de85246b8da5767a8c4d4114bb2c26d931a431c00000000000000000000000000000000000000000000000000000000000000",
        "nonce": "0x9",
        "chainId": "0xaa36a7"
      },
      "additionalContracts": [],
      "isFixedGasLimit": false
    }
  ],
  "receipts": [],
  "libraries": [],
  "pending": [],
  "returns": {},
  "timestamp": 1771734816231,
  "chain": 11155111,
  "commit": "a45cbed"
}