{
  "transactions": [
    {
      "hash": "0xbc651b6b2ba1a9721c4a823c03bb4712383c31c81131aedae57cfe5505c7c180",
      "transactionType": "CALL",
      "contractName": "EntryPoint",
      "contractAddress": "0x0000000071727de22e5e9d8baf0edac6f37da032",
      "function": "handleOps((address,uint256,bytes,bytes,bytes32,uint256,bytes32,bytes,bytes)[],address)",
      "arguments": [
        "[(0xf6f9dF6cff68AE4820c27a29873E6E587A4a457C, 0, 0x, 0xb61d27f6000000000000000000000000c486c0f165e0f28470a1d9a121bbb95a7dbff92c00000000000000000000000000000000000000000000000000038d7ea4c6800000000000000000000000000000000000000000000000000000000000000000600000000000000000000000000000000000000000000000000000000000000000, 0x0000000000000000000000000007a1200000000000000000000000000007a120, 100000, 0x00000000000000000000000077359400000000000000000000000004a817c800, 0x, 0xe26e873195383851bfc4f3e259769a794eb88440f8bab69ddd5f02832cc461242979220bf1eb0211c5f587cffdcb72330301a0a45d59ad49ddece115345d704a1b)]",
        "0xc486C0f165e0f28470a1d9a121bbB95A7DbFF92c"
      ],
      "transaction": {
        "from": "0xc486c0f165e0f28470a1d9a121bbb95a7dbff92c",
        "to": "0x0000000071727de22e5e9d8baf0edac6f37da032",
        "gas": "0x2ba7c",
        "value": "0x0",
        "input": "0x765e827f0000000000000000000000000000000000000000000000000000000000000040000000000000000000000000c486c0f165e0f28470a1d9a121bbb95a7dbff92c00000000000000000000000000000000000000000000000000000000000000010000000000000000000000000000000000000000000000000000000000000020000000000000000000000000f6f9df6cff68ae4820c27a29873e6e587a4a457c0000000000000000000000000000000000000000000000000000000000000000000000000000000000000000000000000000000000000000000000000000012000000000000000000000000000000000000000000000000000000000000001400000000000000000000000000007a1200000000000000000000000000007a12000000000000000000000000000000000000000000000000000000000000186a000000000000000000000000077359400000000000000000000000004a817c8000000000000000000000000000000000000000000000000000000000000000200000000000000000000000000000000000000000000000000000000000000022000000000000000000000000000000000000000000000000000000000000000000000000000000000000000000000000000000000000000000000000000000084b61d27f6000000000000000000000000c486c0f165e0f28470a1d9a121bbb95a7dbff92c00000000000000000000000000000000000000000000000000038d7ea4c68000000000000000000000000000000000000000000000000000000000000000006000000000000000000000000000000000000000000000000000000000000000000000000000000000000000000000000000000000000000000000000000000000000000000000000000000000000000000000000000000000000000000000000000000000000000000000000000000000000000000000000000000041e26e873195383851bfc4f3e259769a794eb88440f8bab69ddd5f02832cc461242979220bf1eb0211c5f587cffdcb72330301a0a45d59ad49ddece115345d704a1b00000000000000000000000000000000000000000000000000000000000000",
        "nonce": "0x6",
        "chainId": "0xaa36a7"
      },
      "additionalContracts": [],
      "isFixedGasLimit": false
    }
  ],
  "receipts": [],
  "libraries": [],
  "pending": [],
  "returns": {},
  "timestamp": 1771733172161,
  "chain": 11155111,
  "commit": "a45cbed"
}